:020000040800F2
:1000000000000120C91A0008550A0008570A000814
:10001000590A00085B0A00085D0A00080000000099
:100020000000000000000000000000005F0A00085F
:10003000610A000800000000630A0008650A000861
:10004000111B0008111B0008111B0008111B0008E0
:10005000111B0008111B0008111B0008111B0008D0
:10006000111B0008111B0008111B0008111B0008C0
:10007000111B0008111B0008111B0008111B0008B0
:10008000111B0008111B0008111B0008111B0008A0
:10009000111B0008111B0008111B0008111B000890
:1000A000111B00086D0A0008111B0008111B000835
:1000B000111B0008111B0008111B0008111B000870
:1000C000111B0008111B0008111B0008111B000860
:1000D000111B0008111B0008111B0008111B000850
:1000E000111B0008111B0008111B00080000000074
:1000F0000000000000000000000000000000000000
:100100000000000000000000111B0008111B000887
:10011000111B0008111B0008111B0008111B00080F
:10012000111B0008111B0008111B0008111B0008FF
:10013000111B0008111B0008111B0008111B0008EF
:10014000111B0008111B0008111B0008111B0008DF
:10015000000000000000000000000000000000009F
:10016000000000000000000000000000000000008F
:10017000000000000000000000000000000000007F
:10018000000000000000000000000000000000006F
:10019000000000000000000000000000000000005F
:1001A000000000000000000000000000000000004F
:1001B000000000000000000000000000000000003F
:1001C000000000000000000000000000000000002F
:1001D000000000000000000000000000000000001F
:0401E0005FF8E0F1F3
:1001E4004FF0FF0C1CEAD0521EBF1CEAD15392EA16
:1001F4000C0F93EA0C0F6FD01A4480EA010C4002F2
:1002040018BF5FEA41211ED04FF0006343EA50104B
:1002140043EA5111A0FB01310CF00040B1F5000F8D
:100224003EBF490041EAD3715B0040EA010062F13C
:100234007F02FD2A1DD8B3F1004F40EBC25008BF26
:1002440020F00100704790F0000F0CF0004C08BF44
:1002540049024CEA502040EA51207F3AC2BFD2F111
:10026400FF0340EAC250704740F400004FF000031F
:10027400013A5DDC12F1190FDCBF00F00040704759
:10028400C2F10002410021FA02F1C2F1200200FA97
:1002940002FC5FEA310040F1000053EA4C0308BF5E
:1002A40020EADC70704792F0000F00F0004C02BFAF
:1002B400400010F4000F013AF9D040EA0C0093F02A
:1002C400000F01F0004C02BF490011F4000F013B84
:1002D400F9D041EA0C018FE70CEAD15392EA0C0FF2
:1002E40018BF93EA0C0F0AD030F0004C18BF31F05D
:1002F400004CD8D180EA010000F00040704790F033
:10030400000F17BF90F0004F084691F0000F91F0D6
:10031400004F14D092EA0C0F01D142020FD193EA9C
:100324000C0F03D14B0218BF084608D180EA010024
:1003340000F0004040F0FE4040F40000704740F000
:10034400FE4040F44000704780F0004002E000BFEF
:1003540081F0004142001FBF5FEA410392EA030FAC
:100364007FEA226C7FEA236C6AD04FEA1262D2EBF6
:100374001363C1BFD218414048404140B8BF5B42FB
:10038400192B88BF704710F0004F40F4000020F094
:100394007F4018BF404211F0004F41F4000121F0AA
:1003A4007F4118BF494292EA030F3FD0A2F10102F4
:1003B40041FA03FC10EB0C00C3F1200301FA03F132
:1003C40000F0004302D5494260EB4000B0F5000F55
:1003D40013D3B0F1807F06D340084FEA310102F114
:1003E4000102FE2A51D2B1F1004F40EBC25008BFC6
:1003F40020F0010040EA03007047490040EB000090
:10040400013A28BFB0F5000FEDD2B0FA80FCACF190
:10041400080CB2EB0C0200FA0CF0AABF00EBC250BD
:1004240052421843BCBFD0401843704792F0000FAB
:1004340081F4000106BF80F400000132013BB5E7FE
:100444004FEA41037FEA226C18BF7FEA236C21D074
:1004540092EA030F04D092F0000F08BF08467047D9
:1004640090EA010F1CBF0020704712F07F4F04D1A7
:10047400400028BF40F00040704712F100723CBFBA
:1004840000F50000704700F0004343F0FE4040F4E4
:10049400000070477FEA226216BF08467FEA2363A2
:1004A4000146420206BF5FEA412390EA010F40F48D
:1004B400800070474FF0000304E000BF10F00043D9
:1004C40048BF40425FEA000C08BF704743F09643C0
:1004D40001464FF000001CE050EA010208BF7047DB
:1004E4004FF000030AE000BF50EA010208BF704762
:1004F40011F0004302D5404261EB41015FEA010C77
:1005040002BF84460146002043F0B64308BFA3F16E
:100514008053A3F50003BCFA8CF2083AA3EBC25350
:1005240010DB01FA02FC634400FA02FCC2F120026F
:10053400BCF1004F20FA02F243EB020008BF20F0A6
:100544000100704702F1200201FA02FCC2F120020C
:1005540050EA4C0021FA02F243EB020008BF20EA01
:10056400DC70704742000ED2B2F1FE4F0BD34FF055
:100574009E03B3EB126209D44FEA002343F0004315
:1005840023FA02F070474FF00000704712F1610F38
:1005940001D1420202D14FF0FF3070474FF000000A
:1005A400704700BF53B94AB9002908BF00281CBFCF
:1005B4004FF0FF314FF0FF3000F00CB8ADF1080CF4
:1005C4006DE904CE01F052FFDDF804E0DDE9022319
:1005D40004B07047704700BF10B5054C237833B999
:1005E400044B13B10448AFF300800123237010BD02
:1005F40070000020000000002427000808B5034B09
:100604001BB103490348AFF3008008BD000000009C
:10061400740000202427000810B584B00446002389
:10062400009301930293039301228188006800F0F0
:1006340078FCA388009311230193E37902930323A5
:1006440003936946206800F057FB04B010BD00B561
:1006540085B000230093019302930393838800934E
:10066400C37902936946006800F046FB05B05DF863
:1006740004FB00002DE9F04383B081460E467D4B18
:1006840093E8030089E80300B379002B33D14FF4D6
:10069400FA6400F0B3FAB268831AA34200D26ABBC8
:1006A40000F0ACFA0130B0603046FFF7B5FF00222D
:1006B400B188306800F035FC122000F025F90122E1
:1006C400B188306800F02DFC3046FFF7C0FF72B6E9
:1006D4000024B188306800F01DFC012815D10134D4
:1006E400A4B242F210739C42F3D962B64FF0434372
:1006F4003361F36082E04FF47A74CAE73369C9F86E
:100704000030F368C9F8043078E00024B188306818
:1007140000F000FC01280BD00134A4B242F21073A3
:100724009C42F3D962B64FF043433361F36065E012
:100734000024B188306800F0EDFB012807D10134B2
:10074400A4B242F210739C42F3D962B656E000237D
:1007540000938DF80430984632E00134A4B2B18895
:10076400306800F0D7FB012824D04FF6FF739C4279
:10077400F3D1002501E00135ADB2B188306800F055
:10078400C9FB012803D14FF6FF739D42F3D1A54263
:100794000AD908F108030DEB030111F8083C012202
:1007A400BA40134301F8083C013FFFB2FF2F03D0C6
:1007B4000024D4E70025E0E708F101085FFA88F88F
:1007C400B8F1040F01D80727F0E762B69DF800508E
:1007D4009DF801002B18DBB29DF802402344DBB2E4
:1007E4009DF803703B44DBB29DF80420934209D08A
:1007F400D9F800303361D9F80430F360484603B0C7
:10080400BDE8F08396F80680B8F1010F0ED0B8F178
:10081400000FEDD12846FFF74DFEC9F800009DF802
:100824000200FFF747FEC9F80400E1E740EA0520AB
:10083400FFF744FE1049FFF7D3FCC9F8000014F099
:10084400800F09D147EA0420FFF738FE0A49FFF771
:10085400C7FCC9F80400DAE704F07F008DF8020051
:1008640047EA0020FFF72AFE0449FFF7B9FCC9F85C
:100874000400CCE73C270008CDCCCC3DCDCCCCBD8E
:1008840030B589B0002404940594069407941C4B55
:100894009A6942F010029A619A6902F01002019278
:1008A400019A9A6942F008029A619A6902F0080270
:1008B4000292029A9A6942F004029A619B6903F0D7
:1008C40004030393039B0F4D22460421284600F0A2
:1008D40028FB04230493012305930694022307931E
:1008E40004A9284600F008FA4FF480730493059491
:1008F400069404A9284600F0FFF909B030BD00BFF2
:1009040000100240000C0140104B1B68104AA2FB6F
:1009140003239B0903FB00F04FF0E022D2F8FC3DD7
:1009240043F08073C2F8FC3D0A4B00225A601A68F7
:1009340042F001021A60074B5B689842FBD8054AF3
:10094400136823F001031360704700BF14000020F4
:10095400D34D6210001000E072B6FEE700B595B00A
:100964003822002106A801F0F3F800230193029332
:10097400039304930593012206924FF48033089362
:100984000B9202220E920F934FF4E013109306A8D9
:1009940000F0E4FA98B90F23019302210291002395
:1009A40003934FF480620492059301A800F0AEFD16
:1009B40038B9054B01221A6715B05DF804FBFFF73F
:1009C400CBFFFFF7C9FF00BF0000424200B58DB066
:1009D40000F0F6F8FFF7C2FFFFF752FF00F072F8DD
:1009E40008496846FFF746FE0198FFF7BBFDC4B20D
:1009F4000098FFF7B7FDC3B22246034902A801F0ED
:100A040087F8EDE7000000204427000882B00E4B71
:100A14009A6942F001029A619A6902F00102009215
:100A2400009ADA6942F08052DA61DB6903F080539C
:100A34000193019B054A536823F0E06343F000737C
:100A4400536002B0704700BF001002400000014034
:100A5400FEE7FEE7FEE7FEE7FEE7704770477047F4
:100A640008B500F0BFF808BD08B5024800F036FE2E
:100A740008BD00BF9000002010B503460C4A0D4984
:100A84000D48006840B10C4800680344521A934270
:100A940006D8094A136010BD0748084C0460F2E701
:100AA40001F05EF80C2303604FF0FF30F3E700BF62
:100AB40000000120000400008C0000202802002017
:100AC4007047000000B587B000230293039304939A
:100AD4000593009301931548154A0260472242602A
:100AE40083604FF6FF72C26003614361836100F06B
:100AF400F5FE90B94FF48053029302A90B4800F01D
:100B040025FF68B90023009301936946074800F064
:100B14009DFF40B907B05DF804FBFFF71DFFE9E74F
:100B2400FFF71AFFEEE7FFF717FFF3E79000002047
:100B3400002C014002680E4B9A4200D0704700B569
:100B440083B003F564439A6942F400629A619B6935
:100B540003F400630193019B00221146192000F065
:100B640099F8192000F0A6F803B05DF804FB00BF63
:100B7400002C014010B504460E4B1A784FF47A73DA
:100B8400B3FBF2F30C4A1068B0FBF3F000F0A0F8EA
:100B940068B90F2C01D901200AE0002221464FF048
:100BA400FF3000F077F8054B1C60002000E00120C6
:100BB40010BD00BF18000020140000201C000020FD
:100BC40008B5074A136843F010031360032000F0CC
:100BD4004FF80F20FFF7CEFFFFF718FF002008BDE6
:100BE40000200240034A1168034B1B780B44136036
:100BF400704700BFD800002018000020014B18687F
:100C0400704700BFD8000020002808DB0901C9B2E2
:100C140000F1604000F5614080F80013704700F077
:100C24000F000901C9B2014B1954704714ED00E0DB
:100C340000B500F00700C0F1070CBCF1040F28BF99
:100C44004FF0040C031D062B0FD9C31E4FF0FF3EBB
:100C54000EFA0CF021EA000199400EFA03FE22EA92
:100C64000E0241EA02005DF804FB0023EEE70000F7
:100C7400074AD36823F4E0631B041B0C000200F44E
:100C8400E060034343F0BF6343F40033D360704731
:100C940000ED00E010B50446054BD868C0F302200F
:100CA400FFF7C6FF01462046FFF7AEFF10BD00BFA9
:100CB40000ED00E0002807DB00F01F0240090123DB
:100CC4009340024A42F82030704700BF00E100E040
:100CD4000138B0F1807F0BD24FF0E0235861054A10
:100CE400F02182F823100020986107221A617047CE
:100CF4000120704700ED00E070B582B00024A446E6
:100D0400A1E07E4DAB4214D00CD8A5F58015AB42C2
:100D14000FD005F57025AB420BD0A5F58015AB427D
:100D240010D106E0764DAB4203D005F58035AB42D9
:100D340008D18B68002B50D0012B49D04261082484
:100D440000E0CC68BEF1FF0F49D806464FEA8C029A
:100D540033680F25954023EA050304FA02F213438E
:100D640033604B6813F0805F6BD0664B9A6942F036
:100D740001029A619B6903F001030193019B4FEA0D
:100D84009C02951C604B53F825600CF00305AD00E4
:100D94000F23AB4026EA03065C4B984226D003F5AA
:100DA4008063984200F08C8003F58063984200F0E1
:100DB400898003F58063984216D0042317E0CC6839
:100DC4000434BFE7CC680834BCE7CC680C34B9E71A
:100DD40002610824B6E70024B4E70424B2E7061D40
:100DE400ACF108029200B3E7032300E00023AB4018
:100DF40033430232444D45F822304B6813F4801FCC
:100E040062D0434A936843EA0E0393604B6813F439
:100E1400001F5FD03E4AD36843EA0E03D3604B6899
:100E240013F4003F5CD03A4A536843EA0E0353601C
:100E34004B6813F4803F59D0354A136843EA0E03D4
:100E440013600CF1010C0B6833FA0CF254D001223C
:100E540002FA0CF203EA020E32EA0303F1D14B6800
:100E6400122B3FF64EAF122B3FF66CAF01A555F88F
:100E740023F000BF370D0008470D0008C90D000816
:100E8400DB0D0008490D0008490D0008490D000854
:100E9400490D0008490D0008490D0008490D0008D6
:100EA400490D0008490D0008490D0008490D0008C6
:100EB400490D0008490D0008C30D0008CF0D0008B6
:100EC400012394E7022392E7114A936823EA0E036D
:100ED40093609BE70E4AD36823EA0E03D3609EE730
:100EE4000B4A536823EA0E035360A1E7084A1368C8
:100EF40023EA0E031360A4E702B070BD00002210C1
:100F040000003110001002400000014000080140C0
:100F1400000401408368194201D001207047002079
:100F240070470AB10161704709040161704700000C
:100F340082B0084B1B68084AA2FB03235B0A00FB30
:100F440003F3019300BF019B5A1E0192002BF9D1B8
:100F540002B0704714000020D34D6210002800F046
:100F6400618270B582B00446036813F0010F2CD07F
:100F7400994B5B6803F00C03042B1DD0964B5B6804
:100F840003F00C03082B12D0A368B3F5803F41D0C3
:100F9400002B55D103F1804303F504331A6822F47E
:100FA40080321A601A6822F480221A6037E08A4B71
:100FB4005B6813F4803FE7D0874B1B6813F4003F52
:100FC40003D0A368002B00F02F82236813F0020FD4
:100FD40075D0814B5B6813F00C0F5FD07E4B5B6860
:100FE40003F00C03082B54D06369002B00F08A80B3
:100FF4007A4B01221A60FFF701FE0546764B1B6807
:1010040013F0020F75D1FFF7F9FD401B0228F5D943
:10101400032010E2704A136843F480331360A3681A
:1010240043B3FFF7EBFD05466B4B1B6813F4003F1E
:10103400CBD1FFF7E3FD401B6428F5D90320FAE187
:10104400B3F5A02F09D0644B1A6822F480321A60D9
:101054001A6822F480221A60E1E703F18043A3F5C1
:101064003C331A6842F480221A601A6842F48032CF
:101074001A60D4E7FFF7C2FD0546574B1B6813F40B
:10108400003FA2D0FFF7BAFD401B6428F5D9032026
:10109400D1E1514B5B6813F4803FA5D14E4B1B68E3
:1010A40013F0020F03D06369012B40F0BF814A4A59
:1010B400136823F0F803A16943EAC10313602368AA
:1010C40013F0080F33D0E369002B5CD0434B0122AB
:1010D400C3F88024FFF792FD05463F4B5B6A13F08B
:1010E400020F21D1FFF78AFD401B0228F5D9032006
:1010F400A1E1394A136823F0F803A16943EAC10363
:101104001360DCE7354B00221A60FFF777FD0546D4
:10111400314B1B6813F0020FD1D0FFF76FFD401B5A
:101124000228F5D9032086E10120FFF701FF236897
:1011340013F0040F00F09680274BDB6913F0805FF7
:1011440034D1254BDA6942F08052DA61DB6903F06D
:1011540080530193019B0125214B1B6813F4807F6D
:1011640026D02369012B3DD0002B53D103F18043BA
:1011740003F504331A6A22F001021A621A6A22F091
:1011840004021A6233E0154B0022C3F88024FFF7EF
:1011940035FD0546104B5B6A13F0020FC7D0FFF70D
:1011A4002DFD401B0228F5D9032044E10025D3E797
:1011B4000B4A136843F480731360FFF71FFD064660
:1011C400074B1B6813F4807FCBD1FFF717FD801BFF
:1011D4006428F5D903202EE10010024000004242A9
:1011E40000700040984A136A43F0010313622369B4
:1011F40033B3FFF703FD0646934B1B6A13F0020F4C
:101204002FD1FFF7FBFC801B41F288339842F3D9BE
:10121400032010E1052B09D08B4B1A6A22F001023E
:101224001A621A6A22F004021A62E0E7864B1A6A0A
:1012340042F004021A621A6A42F001021A62D6E704
:10124400FFF7DCFC0646804B1B6A13F0020F08D044
:10125400FFF7D4FC801B41F288339842F3D9032072
:10126400E9E075BBE36A002B6ED0774A526812F44A
:10127400803F05D0744A526802F00C02082A26D036
:10128400022B4AD1704B1B6813F0805F07D06E4B62
:10129400DB6A03F0F003626B934240F0C9806B4B4E
:1012A40000229A66FFF7AAFC0546674B1B6813F0F9
:1012B400006F13D0FFF7A2FC401B6428F5D903206C
:1012C400B9E0614AD36923F08053D361CAE75E4A27
:1012D400D26A12F4803FD3D00120ACE05A4AD36AD8
:1012E40023F0F003616B0B43D362D36A23F470637E
:1012F400216B0B43D362554B01229A66FFF77EFCA8
:101304000546514B1B6813F0006F1DD1FFF776FCA7
:10131400401B6428F5D903208DE04B4AD36A23F49B
:101324008033D362494B00229A66FFF767FC054677
:10133400454B1B6813F0006F06D0FFF75FFC401BA2
:101344006428F5D9032076E0236A002B72D03E4A44
:10135400526802F00C02082A54D0022B11D03B4BE5
:1013640000221A66FFF74AFC0446374B1B6813F049
:10137400007F45D0FFF742FC001B0228F5D903206B
:1013840059E0324B00221A66FFF738FC05462E4B13
:101394001B6813F0007F06D0FFF730FC401B0228C7
:1013A400F5D9032047E0636AB3F5803F1AD0264994
:1013B4004B6823F47413626AA06A024313434B60BC
:1013C400224B01221A66FFF719FC04461E4B1B68C8
:1013D40013F0007F12D1FFF711FC001B0228F5D98E
:1013E400032028E0184AD36A61680B43D362D36AA6
:1013F40023F00F03E1680B43D362D8E700201AE01F
:10140400002018E0012B18D00F4B5B6803F48031E7
:10141400626A914213D103F47013A26A934210D109
:10142400002008E001207047012004E0012002E0D0
:10143400012000E0002002B070BD0120FBE7012084
:10144400F9E70120F7E700BF001002400000424224
:10145400294B5B6803F00C02082A01D02748704727
:1014640070B5C3F3834226498C5C13F4803F3FD0AC
:10147400214AD36A03F00F032249CB5CD26A12F4E7
:10148400803F2FD01C49CA6AC2F303120132C86AD2
:10149400C0F303200230A0FB040E4FEA4E1141EAD0
:1014A400D06145012D1A61EB0E064FEA861C4CEA09
:1014B400956CA901491B6CEB060C4FEACC0C4CEA69
:1014C400517CC90009184EEB0C0E4FEA4E2EA2FBBC
:1014D400032348024EEAD151FFF764F80D2C0AD1D8
:1014E400400808E0054804FB00F0B0FBF3F0F5E722
:1014F400054804FB00F070BD0010024000127A00A1
:10150400882700087827000800093D00002800F01B
:10151400A08070B50D460446524B1B6803F00703C8
:101524008B420BD24F4A136823F007030B4313601B
:10153400136803F007038B4240F08D80236813F097
:10154400020F17D013F0040F04D0474A536843F432
:10155400E0635360236813F0080F04D0424A5368D1
:1015640043F460535360404A536823F0F003A16886
:101574000B435360236813F0010F31D06368012BD0
:1015840020D0022B25D0384A126812F0020F64D002
:1015940035494A6822F0030213434B60FFF72EFBE0
:1015A4000646314B5B6803F00C036268B3EB820FB1
:1015B40016D0FFF723FB801B41F288339842F0D901
:1015C400032045E0284A126812F4003FE0D10120CC
:1015D4003EE0254A126812F0007FD9D1012037E09D
:1015E400204B1B6803F00703AB420AD91D4A13685A
:1015F40023F007032B431360136803F00703AB4284
:101604002DD1236813F0040F06D0174A536823F42E
:10161400E063E1680B435360236813F0080F07D0BD
:10162400114A536823F46053216943EAC1035360A8
:10163400FFF70EFF0C4B5B68C3F303130B4AD35C39
:10164400D8400B4B18600B4B1868FFF793FA002037
:1016540070BD012070470120FAE70120F8E701205E
:10166400F6E700BF0020024000100240682700088F
:10167400140000201C00002010B4036A046A24F043
:1016840001040462846924F0F00C4CEA021223F091
:101694000A030B438261036210BC704710B4036AEF
:1016A400046A24F010040462846924F4704C4CEA43
:1016B400023223F0A00343EA01138261036210BCE7
:1016C4007047836823F070030B4343F00703836080
:1016D40070477047704770477047704710B50446AD
:1016E40003681A6912F0020F11D0DA6812F0020FBF
:1016F4000DD06FF002021A610123037703689B691E
:1017040013F0030F70D0FFF7E6FF0023237723685D
:101714001A6912F0040F12D0DA6812F0040F0ED016
:101724006FF004021A610223237723689B6913F480
:10173400407F5FD02046FFF7CEFF00232377236846
:101744001A6912F0080F12D0DA6812F0080F0ED0DE
:101754006FF008021A61042323772368DB6913F00E
:10176400030F4ED02046FFF7B6FF002323772368EC
:101774001A6912F0100F12D0DA6812F0100F0ED09E
:101784006FF010021A61082323772368DB6913F4CE
:10179400407F3DD02046FFF79EFF00232377236838
:1017A4001A6912F0010F03D0DA6812F0010F36D172
:1017B40023681A6912F0800F03D0DA6812F0800FE0
:1017C40034D123681A6912F0400F03D0DA6812F09A
:1017D400400F32D123681A6912F0200F03D0DA685F
:1017E40012F0200F30D110BDFFF774FF2046FFF731
:1017F40073FF8AE72046FFF76DFF2046FFF76CFF73
:101804009BE72046FFF766FF2046FFF765FFACE73E
:101814002046FFF75FFF2046FFF75EFFBDE76FF04E
:1018240001021A612046FFF754FFC1E76FF08002FE
:101834001A61204600F045F9C3E76FF040021A61CF
:101844002046FFF74AFFC5E76FF020021A612046E1
:1018540000F036F9C7E7000003681F4A90420ED033
:10186400B0F1804F0BD0A2F59432904207D002F52C
:101874008062904203D002F58062904203D123F04B
:1018840070034A681343144A90420ED0B0F1804F5B
:101894000BD0A2F59432904207D002F580629042B8
:1018A40003D002F58062904203D123F44073CA68E6
:1018B400134323F080034A69134303608B68C362B4
:1018C4000B688362044B984202D001234361704742
:1018D4000B690363F9E700BF002C014040B310B566
:1018E400044690F83D30F3B1022384F83D3021469C
:1018F40051F8040BFFF7B0FF012384F8463084F855
:101904003E3084F83F3084F8403084F8413084F825
:10191400423084F8433084F8443084F8453084F805
:101924003D30002010BD80F83C30FFF703F9DBE7C1
:101934000120704710B4846824F47F4C42EA0322E7
:101944000A4342EA0C02826010BC704790F83C30B3
:10195400012B78D010B50446012380F83C300223D3
:1019640080F83D300268936823F47F4323F07703C3
:1019740093600B68602B4CD023D8402B54D011D8E3
:10198400202B03D00AD80BB1102B05D1194620689F
:10199400FFF797FE002028E0012026E0302BF5D049
:1019A400012022E0502B0AD1CA6849680068FFF779
:1019B40063FE50212068FFF784FE002015E001201B
:1019C40013E0B3F5805F3AD0B3F5005F14D0702B09
:1019D40037D1CB684A6889680068FFF7ABFF226893
:1019E400936843F0770393600020012384F83D302B
:1019F400002384F83C3010BDCB684A6889680068CD
:101A0400FFF798FF2268936843F4804393600020B3
:101A1400EBE7CA6849680068FFF740FE6021206868
:101A2400FFF74FFE0020E0E7CA6849680068FFF747
:101A340023FE40212068FFF744FE0020D5E7002064
:101A4400D3E70120D1E702207047000090F83C2042
:101A5400012A30D010B40346012280F83C2002222F
:101A640080F83D2002685068946820F0700C086883
:101A740040EA0C0050601A68104882420ED0B2F15D
:101A8400804F0BD0A0F59430824207D000F58060DF
:101A9400824203D000F58060824204D124F08004A5
:101AA400496821439160012283F83D20002083F896
:101AB4003C0010BC70470220704700BF002C01405E
:101AC40070477047FEF7FCFF0B480C490C4A002393
:101AD40002E0D458C4500433C4188C42F9D3094AE0
:101AE400094C002301E013600432A242FBD300F04E
:101AF4003DF8FEF76BFF70470000002070000020E7
:101B0400DC2700087000002024020020FEE700000B
:101B14000EB46FF0004100B59CB01DAB029006906E
:101B2400079104910848094953F8042B059100686A
:101B340002A9019300F092F90022029B1A701CB0D2
:101B44005DF804EB03B07047200000200802FFFF9B
:101B540003460244934200D1704703F8011BF9E79E
:101B6400014B1868704700BF2000002070B50026A4
:101B74000C4D0D4C641BA410A64209D100F0D0FDFD
:101B840000260A4D0A4C641BA410A64205D170BD60
:101B940055F8043B98470136EEE755F8043B98475F
:101BA4000136F2E7D4270008D4270008D427000818
:101BB400D82700087047704738B50546002940D03B
:101BC40051F8043C0C1F002BB8BFE41800F0DEF8F9
:101BD4001C4A136833B9636014602846BDE8384072
:101BE40000F0DAB8A34208D9206821188B4201BF5B
:101BF40019685B6809182160EDE71A465B680BB148
:101C0400A342FAD911685018A0420BD120680144AC
:101C1400501883421160E0D118685B680844106072
:101C24005360DAE702D90C232B60D6E72068211829
:101C34008B4201BF19685B680918216063605460B6
:101C4400CBE738BD2002002070B50F4E0C4631683A
:101C5400054611B900F0A8FB30602146284600F083
:101C6400A3FB431C03D14FF0FF34204670BDC41CBA
:101C740024F00304A042F8D0211A284600F094FB73
:101C84000130F2D1EFE700BF1C0200202DE9F84338
:101C9400CD1C25F0030508350C2D38BF0C25002D6F
:101CA400064601DBA94204D90C2333600020BDE8B9
:101CB400F883DFF8D48000F069F8D8F800301C46C7
:101CC40044BB29463046FFF7BFFF431C044658D1A6
:101CD400D8F800402746002F43D1002C4BD023686E
:101CE4003946304604EB030900F05EFB814542D1DE
:101CF400216830466D1A2946FFF7A6FF01303AD015
:101D040023682B442360D8F800305A6862BBC8F8B3
:101D140000700FE02268521B20D40B2A17D96119D6
:101D2400A342256018BF5960636808BFC8F8001053
:101D340062514B60304600F02FF804F10B00231D74
:101D440020F00700C21A1CBF1B1AA350AFE7626839
:101D5400A3420CBFC8F800205A60EBE7234664682E
:101D6400AEE73C467F68B6E71A465B68A342FBD100
:101D740000235360DEE70C233046336000F00CF898
:101D840094E70560D6E700BF200200200148FFF772
:101D940011BF00BF180200200148FFF70CBF00BFAD
:101DA400180200202DE9F0471F468E688246BE4285
:101DB4000C4690460B682DD8B1F90C2012F4906FA4
:101DC40026D06569096905EB4505A3EB010905EB17
:101DD400D5757B1C4B446D109D4238BF1D46530581
:101DE40027D52946FFF752FF064660B34A462169C4
:101DF40000F0F8FAA38923F4906343F08003A381ED
:101E040026614E4426603E466561A5EB0905A56042
:101E1400BE4200D93E4632464146206800F0AAFA46
:101E24000020A3689B1BA360236833442360BDE8A0
:101E3400F0872A4600F0E4FA06460028E0D150462E
:101E44002169FFF7B9FE0C23CAF80030A3894FF0CB
:101E5400FF3043F04003A381E9E700002DE9F04F90
:101E640098468B8907461B060D4614469DB010D52F
:101E74000B6973B94021FFF709FF2860286130B965
:101E84000C233B604FF0FF301DB0BDE8F08F4023C2
:101E94006B610023099320238DF8293030234FF000
:101EA4000109CDF80C80DFF898818DF82A3023469B
:101EB4009A4613F8012B0AB1252AF9D1BAEB040B7F
:101EC4000BD05B46224629463846FFF76BFF0130AC
:101ED40000F0A780099A5A4409929AF80030002B1E
:101EE40000F09F8000234FF0FF32CDE905230AF173
:101EF400010A049307938DF853301A93544605222C
:101F040014F8011B4E4800F05FFA049AD8B9D006C1
:101F140044BF20238DF85330110744BF2B238DF881
:101F240053309AF800302A2B15D0544600204FF035
:101F34000A0C079A214611F8013B303B092B4BD977
:101F4400B0B1079214E0A0EB080309FA03F31343BA
:101F5400A2460493D2E7039B191D1B680391002B2F
:101F6400BBBF5B4242F0020207930793B8BF0492DF
:101F740023782E2B0AD163782A2B32D1039B023487
:101F84001A1D1B68039243EAE3730593DFF8B4A0B8
:101F940003225046217800F017FA38B14022049BFE
:101FA400A0EB0A00824013430134049314F8011B8C
:101FB400062225488DF8281000F006FA002836D0AD
:101FC400224B1BBB039B073323F007030833039304
:101FD400099B334409936AE70C4601200CFB023247
:101FE400A8E700234FF00A0C194601340593204654
:101FF40010F8012B303A092A03D9002BC6D00591D9
:10200400C4E7044601230CFB0121F0E703AB009372
:102014002A4638460E4B04A9AFF30080421C0646FC
:10202400D6D1AB895B063FF52DAF09982CE703ABFE
:1020340000932A463846064B04A900F07DF8EDE7E4
:10204400962700089C270008A0270008000000002D
:10205400A91D00082DE9F047164698468A680B69C1
:1020640007469342B8BF1346336091F843200C46A9
:10207400DDF820900AB1013333602368990642BF2A
:10208400336802333360256815F0060506D104F180
:10209400190AE36832689B1AAB422BDC94F843308C
:1020A4002268003B18BF0123920630D441463846CB
:1020B40004F14302C847013023D02368226903F0A6
:1020C4000603042B14BF002533684FF0000608BF35
:1020D400E56804F11A0408BFED1A54F8123C08BF6D
:1020E40025EAE5759342C4BF9B1AED18B5421AD18F
:1020F400002008E00123524641463846C8470130D3
:1021040003D14FF0FF30BDE8F0870135C1E730203F
:10211400E11881F843005A1C94F845102244023314
:1021240082F84310C2E70123224641463846C84795
:102134000130E6D00136D9E72DE9FF470F7E9146FD
:10214400782F80460C469A460C9E01F1430207D82C
:10215400622F0AD8002F00F0D180582F00F0B880E9
:1021640004F1420684F842703AE0A7F16303152BA8
:10217400F6D801A151F823F0D5210008E92100087F
:102184006521000865210008652100086521000813
:10219400E92100086521000865210008652100087F
:1021A40065210008E722000813220008A122000884
:1021B400652100086521000809230008652100083D
:1021C400132200086521000865210008A9220008DF
:1021D40033681A1D1B68326004F1420684F84230E9
:1021E40001239CE033682068191D3160060601D57F
:1021F4001D6803E04506FBD5B3F90050002D03DA52
:102204002D236D4284F843300A23584811E0216895
:102214003368080653F8045B02D4490648BFADB2DC
:102224006F2F336014BF0A2308235048002184F819
:1022340043106668002EA66005DB21682E4321F05A
:10224400040121604BD01646B5FBF3F103FB115793
:10225400C75D06F8017D2F46BB420D46F4D9082B15
:102264000BD12368DF0708D5236961689942DEBF73
:10227400302306F8013C06F1FF36921B22614B46DF
:1022840021464046CDF800A003AAFFF7E3FE013043
:102294004AD14FF0FF3004B0BDE8F087236843F023
:1022A400200323607827324884F845702368316816
:1022B4001F0651F8045B02D45F0648BFADB231601B
:1022C400D90744BF43F0200323601DB11023ADE7B9
:1022D4002648E9E7236823F020032360F6E716463F
:1022E400BDE733682568181D616930602E061B68D8
:1022F40001D5196002E06806FBD519800023164653
:102304002361BCE7336800211A1D32601E686268CD
:10231400304600F059F808B1801B6060636823619F
:10232400002384F84330AAE73246494640462369ED
:10233400D0470130ADD023689B0713D4E068039BDA
:102344009842B8BF1846A6E701233246494640469C
:10235400D04701309DD00135E36803995B1AAB4245
:10236400F2DCEBE7002504F11906F5E7A7270008DE
:10237400B8270008884210B501EB020402D9844250
:10238400234607D8431EA14208D011F8012B03F8B5
:10239400012FF8E7014602448A4200D110BD13F828
:1023A400014D02F8014DF7E738B50023054D044609
:1023B40008462B60FEF760FB431C02D12B6803B177
:1023C400236038BD14020020034610B5C9B202448C
:1023D4009342184601D1002003E0047801338C4273
:1023E400F6D110BD0A44914200F1FF3300D1704789
:1023F40010B511F8014B914203F8014FF9D110BD0A
:102404002DE9F041074614460D4621B91146BDE8B1
:10241400F041FFF73BBC2AB9FFF7CEFB254628461F
:10242400BDE8F08100F01AF88442064602D8B4EB05
:10243400500FF4D821463846FFF728FC804608B9E7
:102444004546ECE7B4422246294628BF3246FFF708
:10245400C9FF29463846FFF7AFFBF1E751F8043CC2
:10246400181F002BBCBF0B58C01870472DE9F0474C
:10247400089D0E4604468E46002B4CD18A42944653
:10248400B2FA82F362D953B102FA03FCC3F1200217
:1024940001FA03FE20FA02F242EA0E0E9C404FEAD1
:1024A4001C47BEFBF7F11FFA8CF607FB11EE01FB8C
:1024B40006F0220C42EA0E4290420AD91CEB0202B8
:1024C40001F1FF3E80F00E81904240F20B8102390F
:1024D4006244121AB2FBF7F007FB102200FB06F667
:1024E400A4B244EA0244A6420AD91CEB040400F153
:1024F400FF3280F0F980A64240F2F680644402384C
:1025040040EA01400021A41B1DB1DC400023C5E9C1
:102514000043BDE8F0878B4205D90DB1C5E9000140
:1025240000210846F5E7B3FA83F1002942D1B3420A
:1025340002D3824200F2EE80841A66EB0302012089
:102544009646002DE5D0C5E9004EE2E7002B40F0A9
:102554008C80881A0121170C96B2B0FBF7FE07FB9A
:102564001E00220C42EA004206FB0EF0904208D9FB
:102574001CEB02020EF1FF3802D2904200F2CC8032
:10258400C646121AB2FBF7F007FB102200FB06F650
:10259400A4B244EA0244A64208D91CEB040400F1A4
:1025A400FF3202D2A64200F2B2801046A41B40EAD7
:1025B4000E40A9E7C1F120078B4022FA07FC4CEA40
:1025C400030C26FA07FA4FEA1C48BAFBF8FE06FA8F
:1025D40001F308FB1EAA1FFA8CF620FA07F400FA8E
:1025E40001F90EFB06F023431C0C44EA0A44A04202
:1025F40002FA01F20BD91CEB04040EF1FF3A80F04D
:102604008480A04240F28180AEF1020E6444241A18
:1026140098B2B4FBF8F308FB134403FB06F640EA54
:102624000444A64208D91CEB040403F1FF3068D229
:10263400A64266D9023B644443EA0E40A41BA0FBB5
:1026440002E6B4427346B04652D34FD05DB1B9EB03
:10265400030264EB080404FA07F722FA01F31F43A8
:10266400CC40C5E90074002153E702FA03FCC3F12E
:102674002000C1404FEA1C47B1FBF7FE07FB1E11C7
:1026840024FA00F09E403043020C1FFA8CF642EA12
:1026940001420EFB06F1914204FA03F409D91CEB42
:1026A40002020EF1FF382ED291422CD9AEF1020E65
:1026B4006244521AB2FBF7F107FB112280B240EADE
:1026C400024001FB06F2824208D91CEB000001F132
:1026D400FF3814D2824212D902396044801A41EA86
:1026E4000E413AE77146F4E6104609E7F145ADD2EA
:1026F400BEEB020366EB0C060138B046A6E7414682
:10270400ECE7034698E7C646D3E7D6467FE764443A
:1027140002384BE7084614E7AEF1020E624430E794
:10272400F8B500BFF8BC08BC9E467047F8B500BFBA
:08273400F8BC08BC9E4670478A
:10273C00000000C3000000C30C4C6976696E672072
:10274C00726F6F6D3A2054656D70202564C2B04372
:10275C002C2048756D202564252500000000000004
:10276C00000000000102030406070809010203042B
:10277C0005060708090A0B0C0D0E0F1000000405C6
:10278C000607080900000000000D232D302B200047
:10279C00686C4C006566674546470030313233340F
:1027AC0035363738394142434445460030313233AF
:1027BC003435363738396162636465660000000071
:0827CC00A4FCFF7F01000000E6
:0427D40001060008F2
:0427D800DD05000813
:1027DC00000C01400001000000000000000000009F
:1027EC00000000000024F4000100000010000000B4
:1027FC002400002000000000DC0000204401002028
:10280C00AC010020000000000000000000000000EF
:10281C0000000000000000000000000000000000AC
:10282C00000000000000000000000000000000009C
:10283C00000000000000000000000000000000008C
:0400000508001AC90C
:00000001FF
